{
  "transactions": [
    {
      "hash": "0x946ac5c43b523a13c55a68dc334fc904a7cfefd283dce212e3f13393d77b2f90",
      "transactionType": "CALL",
      "contractName": "HelperConfig",
      "contractAddress": "0x5aadfb43ef8daf45dd80f4676345b7676f1d70e3",
      "function": "getConfig()",
      "arguments": [],
      "transaction": {
        "from": "0x7f6a4429ac431a7f0c5fb7d6fa63f973907d82e9",
        "to": "0x5aadfb43ef8daf45dd80f4676345b7676f1d70e3",
        "gas": "0x722a",
        "value": "0x0",
        "input": "0xc3f909d4",
        "nonce": "0x203",
        "chainId": "0xaa36a7"
      },
      "additionalContracts": [],
      "isFixedGasLimit": false
    },
    {
      "hash": "0xe778380d0822006f43badbf9d3a157cbde9eb5f96ea16a26bc2dad74bbcf3f30",
      "transactionType": "CALL",
      "contractName": "HelperConfig",
      "contractAddress": "0x5aadfb43ef8daf45dd80f4676345b7676f1d70e3",
      "function": "getConfig()",
      "arguments": [],
      "transaction": {
        "from": "0x7f6a4429ac431a7f0c5fb7d6fa63f973907d82e9",
        "to": "0x5aadfb43ef8daf45dd80f4676345b7676f1d70e3",
        "gas": "0x722a",
        "value": "0x0",
        "input": "0xc3f909d4",
        "nonce": "0x204",
        "chainId": "0xaa36a7"
      },
      "additionalContracts": [],
      "isFixedGasLimit": false
    },
    {
      "hash": "0x1c00238f1236b36010a03056ecc38210a15210dc1464a1f7dc066798e91b41ef",
      "transactionType": "CALL",
      "contractName": "EntryPoint",
      "contractAddress": "0xd9003177dc465aaa89e20678675dca7fa5f5cad5",
      "function": "handleOps((address,uint256,bytes,bytes,bytes32,uint256,bytes32,bytes,bytes)[],address)",
      "arguments": [
        "[(0x637c2b32Db662ADBcaF9F417BfE31e053a8dbd6F, 0, 0x, 0xb61d27f6000000000000000000000000f08a50178dfcde18524640ea6618a1f965821715000000000000000000000000000000000000000000000000000000000000000000000000000000000000000000000000000000000000000000000000000000600000000000000000000000000000000000000000000000000000000000000044095ea7b3000000000000000000000000637c2b32db662adbcaf9f417bfe31e053a8dbd6f0000000000000000000000000000000000000000000000000de0b6b3a764000000000000000000000000000000000000000000000000000000000000, 0x00000000000000000000000000fffffb00000000000000000000000000fffffb, 16777211, 0x0000000000000000000000000000010000000000000000000000000000000100, 0x, 0xfb4697db9686568bb1d627844cb56ad3a8296731dc980c803614e2a647cd5ea75b8418ee051a349e170d289ce2e8d4bb048bbc402fc8cda648d5fcea51d61e5f1b)]",
        "0x7F6a4429ac431A7f0C5fb7d6FA63f973907d82E9"
      ],
      "transaction": {
        "from": "0x7f6a4429ac431a7f0c5fb7d6fa63f973907d82e9",
        "to": "0xd9003177dc465aaa89e20678675dca7fa5f5cad5",
        "gas": "0xc074",
        "value": "0x0",
        "input": "0x765e827f00000000000000000000000000000000000000000000000000000000000000400000000000000000000000007f6a4429ac431a7f0c5fb7d6fa63f973907d82e900000000000000000000000000000000000000000000000000000000000000010000000000000000000000000000000000000000000000000000000000000020000000000000000000000000637c2b32db662adbcaf9f417bfe31e053a8dbd6f00000000000000000000000000000000000000000000000000000000000000000000000000000000000000000000000000000000000000000000000000000120000000000000000000000000000000000000000000000000000000000000014000000000000000000000000000fffffb00000000000000000000000000fffffb0000000000000000000000000000000000000000000000000000000000fffffb000000000000000000000000000001000000000000000000000000000000010000000000000000000000000000000000000000000000000000000000000002600000000000000000000000000000000000000000000000000000000000000280000000000000000000000000000000000000000000000000000000000000000000000000000000000000000000000000000000000000000000000000000000e4b61d27f6000000000000000000000000f08a50178dfcde18524640ea6618a1f965821715000000000000000000000000000000000000000000000000000000000000000000000000000000000000000000000000000000000000000000000000000000600000000000000000000000000000000000000000000000000000000000000044095ea7b3000000000000000000000000637c2b32db662adbcaf9f417bfe31e053a8dbd6f0000000000000000000000000000000000000000000000000de0b6b3a7640000000000000000000000000000000000000000000000000000000000000000000000000000000000000000000000000000000000000000000000000000000000000000000000000000000000000000000000000000000000000000000000000000000000000000000000000000000000000000000000000041fb4697db9686568bb1d627844cb56ad3a8296731dc980c803614e2a647cd5ea75b8418ee051a349e170d289ce2e8d4bb048bbc402fc8cda648d5fcea51d61e5f1b00000000000000000000000000000000000000000000000000000000000000",
        "nonce": "0x205",
        "chainId": "0xaa36a7"
      },
      "additionalContracts": [],
      "isFixedGasLimit": false
    }
  ],
  "receipts": [
    {
      "status": "0x1",
      "cumulativeGasUsed": "0x1882aa8",
      "logs": [],
      "logsBloom": "0x00000000000000000000000000000000000000000000000000000000000000000000000000000000000000000000000000000000000000000000000000000000000000000000000000000000000000000000000000000000000000000000000000000000000000000000000000000000000000000000000000000000000000000000000000000000000000000000000000000000000000000000000000000000000000000000000000000000000000000000000000000000000000000000000000000000000000000000000000000000000000000000000000000000000000000000000000000000000000000000000000000000000000000000000000000000",
      "type": "0x2",
      "transactionHash": "0xe778380d0822006f43badbf9d3a157cbde9eb5f96ea16a26bc2dad74bbcf3f30",
      "transactionIndex": "0xda",
      "blockHash": "0x1cc42c107a9d8ea602a9e9ad4ffb69cd919d1a5a7fb008d2af2365c15b190d37",
      "blockNumber": "0xa899d9",
      "gasUsed": "0x52a8",
      "effectiveGasPrice": "0x312ae5d44",
      "from": "0x7f6a4429ac431a7f0c5fb7d6fa63f973907d82e9",
      "to": "0x5aadfb43ef8daf45dd80f4676345b7676f1d70e3",
      "contractAddress": null
    },
    {
      "status": "0x1",
      "cumulativeGasUsed": "0x1887d50",
      "logs": [],
      "logsBloom": "0x00000000000000000000000000000000000000000000000000000000000000000000000000000000000000000000000000000000000000000000000000000000000000000000000000000000000000000000000000000000000000000000000000000000000000000000000000000000000000000000000000000000000000000000000000000000000000000000000000000000000000000000000000000000000000000000000000000000000000000000000000000000000000000000000000000000000000000000000000000000000000000000000000000000000000000000000000000000000000000000000000000000000000000000000000000000",
      "type": "0x2",
      "transactionHash": "0x946ac5c43b523a13c55a68dc334fc904a7cfefd283dce212e3f13393d77b2f90",
      "transactionIndex": "0xdb",
      "blockHash": "0x1cc42c107a9d8ea602a9e9ad4ffb69cd919d1a5a7fb008d2af2365c15b190d37",
      "blockNumber": "0xa899d9",
      "gasUsed": "0x52a8",
      "effectiveGasPrice": "0x312ae5d44",
      "from": "0x7f6a4429ac431a7f0c5fb7d6fa63f973907d82e9",
      "to": "0x5aadfb43ef8daf45dd80f4676345b7676f1d70e3",
      "contractAddress": null
    },
    {
      "status": "0x1",
      "cumulativeGasUsed": "0x18908a6",
      "logs": [],
      "logsBloom": "0x00000000000000000000000000000000000000000000000000000000000000000000000000000000000000000000000000000000000000000000000000000000000000000000000000000000000000000000000000000000000000000000000000000000000000000000000000000000000000000000000000000000000000000000000000000000000000000000000000000000000000000000000000000000000000000000000000000000000000000000000000000000000000000000000000000000000000000000000000000000000000000000000000000000000000000000000000000000000000000000000000000000000000000000000000000000",
      "type": "0x2",
      "transactionHash": "0x1c00238f1236b36010a03056ecc38210a15210dc1464a1f7dc066798e91b41ef",
      "transactionIndex": "0xdc",
      "blockHash": "0x1cc42c107a9d8ea602a9e9ad4ffb69cd919d1a5a7fb008d2af2365c15b190d37",
      "blockNumber": "0xa899d9",
      "gasUsed": "0x8b56",
      "effectiveGasPrice": "0x312ae5d44",
      "from": "0x7f6a4429ac431a7f0c5fb7d6fa63f973907d82e9",
      "to": "0xd9003177dc465aaa89e20678675dca7fa5f5cad5",
      "contractAddress": null
    }
  ],
  "libraries": [],
  "pending": [],
  "returns": {},
  "timestamp": 1781332585429,
  "chain": 11155111,
  "commit": null
}